S00D00004943505F322E73726563AA
S11300000C942A000C943F000C943F000C943F0085
S11300100C943F000C943F000C943F000C943F0060
S11300200C943F000C943F000C943F000C943F0050
S11300300C943F000C943F000C943F000C943F0040
S11300400C943F000C943F000C943F000C943F0030
S11300500C943F0011241FBECFE5D4E0DEBFCDBF1A
S113006010E0A0E6B0E0ECE4F7E002C005900D92E9
S1130070AE38B107D9F70E94D8000C94A4030C94AD
S1130080000095B39F70282F207F922B95BB95B3CA
S11300909E7F95BB95B3926095BB000095B39D7F01
S11300A095BB32E43A95F1F700C025B330E1839F64
S11300B0C0011124922F9F70892B85BB85B3826068
S11300C085BB000085B38D7F85BB83EF91E00197ED
S11300D0F1F700C00000089595B39F70282F207F8A
S11300E0922B95BB95B3916095BB95B3926095BBEC
S11300F0000095B39D7F95BB32E43A95F1F700C0BB
S113010025B330E1839FC0011124922F9F70892B66
S113011085BB85B3826085BB000085B38D7F85BBBD
S113012083EF91E00197F1F700C0000008958FEF8D
S113013084BB87E893E10197F1F700C0000082E0F7
S11301400E94410088E20E9441008CE00E9441002C
S113015086E00E94410081E00E94410083EF91E02B
S11301600197F1F700C0000008950F931F93CF93F8
S1130170DF938C01C0E0D0E003C00E946C002196A4
S1130180F801EC0FFD1F80818111F7CFDF91CF9132
S11301901F910F91089581E00E94410083EF91E047
S11301A00197F1F700C0000080E80E944100089523
S11301B0CF93DF93CDB7DEB765970FB6F894DEBF64
S11301C00FBECDBF0E9497008FEF82BB1FBC1DBC2A
S11301D01CBC80E288BF81E48EBD08B605FEFDCF5D
S11301E086B597B520E228BF21E02EBD08B605FEEE
S11301F0FDCF66B577B520E228BF21E42EBD08B651
S113020005FEFDCFC6B4D7B420E228BF1EBC8617B6
S1130210970708F061C06C157D0508F05DC08B017F
S1130220081B190BC81AD90AE12CF12C60E472E4FA
S11302308FE090E0A70196010E941C0349015A0136
S1130240B80180E090E00E9421022B013C01C7012B
S1130250B6010E9421029B01AC01C301B2010E94BC
S1130260790120E030E048EC52E40E94AF026B01D7
S11302707C012AE0AE014F5F5F4FC501B4010E94CB
S11302804903C701B6010E94EB01DC01CB014AE03E
S1130290BE01615F7F4F0E943E0380E80E944100DF
S11302A080E690E00E94B500CE0101960E94B50060
S11302B087E690E00E94B50080EC0E9441008FE642
S11302C090E00E94B500CE010F960E94B50086E72B
S11302D090E00E94B50006C00E94CB008FE790E03A
S11302E00E94B50083ED90E30197F1F700C0000090
S11302F06DCF0E948D010C9475020E946E0258F01D
S11303000E94670240F029F45F3F29F00C945E02DA
S113031051110C94A9020C9464020E94860268F3A1
S11303209923B1F3552391F3951B550BBB27AA27AA
S113033062177307840738F09F5F5F4F220F331FE4
S1130340441FAA1FA9F335D00E2E3AF0E0E832D0AC
S113035091505040E695001CCAF72BD0FE2F29D0AF
S1130360660F771F881FBB1F261737074807AB0781
S1130370B0E809F0BB0B802DBF01FF2793585F4FF6
S11303803AF09E3F510578F00C945E020C94A90259
S11303905F3FE4F3983ED4F3869577956795B795D8
S11303A0F7959F5FC9F7880F911D9695879597F9E3
S11303B00895E1E0660F771F881FBB1F621773075C
S11303C08407BA0720F0621B730B840BBA0BEE1F71
S11303D088F7E09508950E94F2016894B1110C9495
S11303E0A90208950E948E0288F09F5798F0B92FB1
S11303F09927B751B0F0E1F0660F771F881F991F56
S11304001AF0BA95C9F714C0B13091F00E94A8024D
S1130410B1E008950C94A802672F782F8827B85F5D
S113042039F0B93FCCF3869577956795B395D9F7AD
S11304303EF490958095709561957F4F8F4F9F4FB7
S11304400895E89409C097FB3EF4909580957095C3
S113045061957F4F8F4F9F4F9923A9F0F92F96E90C
S1130460BB279395F695879577956795B795F11181
S1130470F8CFFAF4BB0F11F460FF1BC06F5F7F4F1E
S11304808F4F9F4F16C0882311F096E911C0772330
S113049021F09EE8872F762F05C0662371F096E839
S11304A0862F70E060E02AF09A95660F771F881F08
S11304B0DAF7880F9695879597F9089597F99F67C6
S11304C080E870E060E008959FEF80EC08950024D8
S11304D00A941616170618060906089500240A94A5
S11304E012161306140605060895092E0394000C2B
S11304F011F4882352F0BB0F40F4BF2B11F460FFBA
S113050004C06F5F7F4F8F4F9F4F089557FD9058E2
S1130510440F551F59F05F3F71F04795880F97FBC3
S1130520991F61F09F3F79F087950895121613067D
S11305301406551FF2CF4695F1DF08C016161706AC
S11305401806991FF1CF86957105610508940895E1
S1130550E894BB2766277727CB0197F908950E9473
S1130560C2020C9475020E94670238F00E946E0267
S113057020F0952311F00C945E020C946402112473
S11305800C94A9020E94860270F3959FC1F3950F03
S113059050E0551F629FF001729FBB27F00DB11D03
S11305A0639FAA27F00DB11DAA1F649F6627B00D93
S11305B0A11D661F829F2227B00DA11D621F739F7C
S11305C0B00DA11D621F839FA00D611D221F749F8A
S11305D03327A00D611D231F849F600D211D822FD1
S11305E0762F6A2F11249F5750409AF0F1F08823F8
S11305F04AF0EE0FFF1FBB1F661F771F881F915025
S11306005040A9F79E3F510580F00C945E020C9473
S1130610A9025F3FE4F3983ED4F3869577956795F6
S1130620B795F795E7959F5FC1F7FE2B880F911D4E
S11306309695879597F90895A1E21A2EAA1BBB1BDC
S1130640FD010DC0AA1FBB1FEE1FFF1FA217B3079A
S1130650E407F50720F0A21BB30BE40BF50B661FB0
S1130660771F881F991F1A9469F760957095809574
S113067090959B01AC01BD01CF010895BB274A3081
S113068031F4992322F4BDE2909581959F4F0C9407
S11306907B03BB272A3051F4992342F4BDE29095A1
S11306A08095709561957F4F8F4F9F4F0C945903A0
S11306B0BB27FA01A62F6217710581059105330B3B
S11306C030FB66F0AA27660F771F881F991FAA1FA1
S11306D0A21710F0A21B63953850A9F7A05DAA33A6
S11306E008F0A95DA19336F7B111B1931082CA0144
S11306F00C949403BB27FB015527AA27880F991F45
S1130700AA1FA41710F0A41B83955051B9F7A05D3C
S1130710AA3308F0A95DA193009779F7B111B193B9
S11307201192CB010C949403DC01FC01672F7191AD
S11307307723E1F7329704C07C916D9370836291C3
S10F0740AE17BF07C8F30895F894FFCF6C
S113074C467265713A200020487A2020202000440B
S113075C7574793A20002025202020202020004F79
S111076C5554204F462052414E47452121004E
S9030000FC
