:100AB5007508047509D2120AC77FE37E1D12080066
:020AC50080F7B8
:0F0AC700120AD6C283C282C281C28075A0992250
:100A0600E4FEEFB40A00504D900A15F82828730248
:100A16000A33020A37020A3B020A3F020A43020A63
:100A260047020A4B020A4F020A53020A577EC08047
:100A3600267EF980227EA4801E7EB0801A7E998052
:100A4600167E9280127E82800E7EF8800A7E8080DC
:090A5600067E9080027EFFAF06CF
:010A5F002274
:04080000AB07AA0692
:100804007C007D0A120A608D0A7C007D0AAF03AE6B
:1008140002120A607C007D0A120A608D0B7C007D46
:1008240064AF03AE02120A607C007D0A120A608D76
:100834000CAE02AF037C037DE8120A607C007D0AE3
:10084400120A60AF0A120A068F0DAF0B120A068F46
:100854000EAF0C120A068F0FAF05120A068F101284
:100864000AE0EF4E700CD283C282C281C280850D31
:10087400A022EF64014E700CC283D282C281C28076
:10088400850EA022EF64024E700CC283C282D28114
:10089400C280850FA022EF64034E700BC283C28214
:0708A400C281D2808510A083
:0108AB00222A
:030AE500011300FA
:0A0AD600438901D2A9D2AFD28C22CD
:050AE000AE11AF12226F
:03000B000209AB3C
:1009AB00C0E0C0D0C28DC28C758CDF758A00E51398
:1009BB007006F511F5128032E513B40108751100BC
:1009CB007512018025E513B402087511007512022A
:1009DB008018E513B40308751100751203800BE53D
:1009EB0013B404067511007512040513E513B40551
:0B09FB0003751300D28CD0D0D0E03286
:040AE9007590FF22E3
:100938007F33C290D291D292D2932094027F3720F3
:1009480095027F382096027F392097027F41D29006
:10095800C291D292D2932094027F342095027F359F
:100968002096027F362097027F42D290D291C2927F
:10097800D2932094027F312095027F322096027F05
:10098800332097027F43D290D291D292C29320947F
:10099800027F2A2095027F302096027F232097022B
:0209A8007F448A
:0109AA00222A
:030000000208AC47
:0C08AC00787FE4F6D8FD7581130208F394
:100A6000BC000BBE0029EF8DF084FFADF022E4CC7A
:100A7000F875F008EF2FFFEE33FEEC33FCEE9DEC43
:100A8000984005FCEE9DFE0FD5F0E9E4CEFD22ED89
:100A9000F8F5F0EE8420D21CFEADF075F008EF2FD3
:100AA000FFED33FD4007985006D5F0F222C398FDC4
:050AB0000FD5F0EA2261
:1008B800020AB5E493A3F8E493A34003F68001F297
:1008C80008DFF48029E493A3F85407240CC8C33341
:1008D800C4540F4420C8834004F456800146F6DF10
:1008E800E4800B0102040810204080900AE5E47EB1
:1008F800019360BCA3FF543F30E509541FFEE49305
:10090800A360010ECF54C025E060A840B8E493A3CB
:10091800FAE493A3F8E493A3C8C582C8CAC583CAF6
:10092800F0A3C8C582C8CAC583CADFE9DEE780BEAE
:010AE800000D
:00000001FF
