:100EB000E4F516F517F518F519120F84120FC5127F
:020EC0000F9D84
:100EC200120D368F1AE51A646B602AAE16AF177CC4
:100ED200007D0A120A578E168F17E51A24D0FFE4F6
:100EE20034FFFEEF2517F517EE3516F5160519E551
:100EF2001970020518AF17AE16120C7A20B6C1AFE0
:060F020017AE16120BAB46
:020F080080B8AF
:0F0F8400120F93C283C282C281C28075A09922CC
:100F0A00E4FEEFB40A00504D900F19F82828730236
:100F1A000F37020F3B020F3F020F43020F47020F28
:100F2A004B020F4F020F53020F57020F5B7EC08016
:100F3A00267EF980227EA4801E7EB0801A7E998049
:100F4A00167E9280127E82800E7EF8800A7E8080D3
:090F5A00067E9080027EFFAF06C6
:010F6300226B
:040C7A00AB07AA0614
:100C7E007C007D0A120A698D1B7C007D0AAF03AED3
:100C8E0002120A697C007D0A120A698D1C7C007DA5
:100C9E0064AF03AE02120A697C007D0A120A698DE6
:100CAE001DAE02AF037C037DE8120A697C007D0A4B
:100CBE00120A69AF1B120F0A8F1EAF1C120F0A8F7A
:100CCE001FAF1D120F0A8F20AF05120F0A8F2112B0
:100CDE000FB7EF4E700CD283C282C281C280851EC6
:100CEE00A022EF64014E700CC283D282C281C280F8
:100CFE00851FA022EF64024E700CC283C282D28185
:100D0E00C2808520A022EF64034E700AC283C28285
:100D1E00C281D280800EEF64044E700BC283C282F9
:070D2E00C281C2808521A0F3
:010D3500229B
:030FC10001240008
:0A0F9300438901D2A9D2AFD28C220B
:050FB700AE22AF232271
:03000B00020E558D
:100E5500C0E0C0D0C28DC28C758CDF758A00E524D8
:100E65007006F522F5238032E524B40108752200C9
:100E75007523018025E524B4020875220075230237
:100E85008018E524B40308752200752303800BE55B
:100E950024B404067522007523040524E524B4054D
:0B0EA50003752400D28CD0D0D0E032C6
:040FC5007590FF2202
:100D36007F6BC290D291D292D2932094047F31805D
:100D4600F92095047F3280F92096047F3380F920BC
:100D560097047F4380F9D290C291D292D293209485
:100D6600047F3480F92095047F3580F92096047F2E
:100D76003680F92097047F4280F9D290D291C292B0
:100D8600D2932094047F3780F92095047F3880F928
:100D96002096047F3980F92097047F4180F9D2900C
:100DA600D291D292C2932094047F2A80F92095048E
:100DB6007F3080F92096047F2380F92097047F44B2
:020DC60080F9B2
:010DC8002208
:090F9D00D2B6D2AFD2A8D288224C
:03000300020FC920
:030FC900B2B6328B
:080FAF00438910D2ABD2AF223E
:090FA60085098D850B8BD28E228A
:050FBC00C28FC28E226D
:03001B00020F646D
:100F6400C0E0E50F150F7002150E14450E7008B29F
:100F7400B785140E85150F120FBC120FA6D0E032E0
:100BAB008E1B8F1CE50D651C7004E50C651B70031B
:100BBB00020C6E120FAF851B0C851C0DAC0CAD0D12
:100BCB00E412099DA804A905AA06AB07E4FFFE7D64
:100BDB00E17C481208FBE4FBFA79F078C1120807B4
:100BEB001209D68F138E128D118C1075140075157A
:100BFB0001E4FFFE7D01FCAB13AA12A911A810D3CF
:100C0B00120B9A401F75140075150AAF13AE12AD77
:100C1B0011AC10E47B0AFAF9F8120AFA8F138E1250
:100C2B008D118C10C3E49513FFE49512FE7401959E
:100C3B0011FDE49510FCE4FB7A01F9F8120AFA8E27
:100C4B00088F09C3E49513FFE49512FE7401951107
:100C5B00FDE49510FCE4F50A8F0B85140E85150F3A
:0F0C6B00020FA6E51C451B7005C2B7120FBC2275
:10080000020A42E86480F8E933E83360110460F0DA
:10081000ED33EC337009E8FCE9FDEAFEEBFF22045E
:1008200060DED3EB9FEA9EE99DE8C2E78CF0C2F759
:1008300095F0400CE8CCF8E9CDF9EACEFAEBCFFB25
:10084000120A0D85D0F05804700320D5B3E8047067
:10085000075002B2D5020A4C92D5EC0460F7E4CC02
:10086000C0E0C398F8603B94186008400DD0E0FBEE
:10087000020A24E4FBFAC9FC8028E830E406E4C953
:10088000FBE4CAFCE830E305E4C9CACBFCE8540742
:100890006010F8C3E913F9EA13FAEB13FBEC13FC4D
:1008A000D8F130F52FC3E49CFCEF9BFFEE9AFEEDF0
:1008B00099FDD0E0FBEF4E4D4C701222DB03020A93
:1008C00049EC2CFCEF33FFEE33FEED33FDED30E76A
:1008D000EB020A24EF2BFFEE3AFEED39FDD0E0FBF0
:1008E00050130BBB0003020A4CED13FDEE13FEEF99
:0808F00013FFEC13FC020A24C3
:1008F800020A4CEC5D046005E859047003020A42E0
:10090800120A0D580460F6EC4860F2EC7004FDFE23
:10091800FF22C860DB2481C85009C39860025006D2
:10092800020A499850CAF582E9294B4A7005AB82F8
:10093800020A3875F0007C1A7880C3EF9BEE9AEDB6
:1009480099400DC3EF9BFFEE9AFEED99FDE842F04A
:10095800DC23ACF0D0E0FFD0E0FED0E0FDAB82209D
:10096800E7101BEB60BAEC2CFCEF33FFEE33FEED27
:1009780033FD020A24E803F830E705C0F075F000FB
:10098800EF2FFFEE33FEED33FD40B830E7C280AA0B
:1009980075F020800E75F010800575F0087D007EDA
:1009A800007F003392D530D503120B8CEC33401006
:1009B800EF33FFEE33FEED33FDEC33FCD5F0ED22E3
:0E09C800E5F0247EA2D513CC92E7CDCEFF221F
:1009D600EDD2E7CD33EC3392D524814006E4FFFE19
:1009E600FDFC22FCE4CFCECDCC24E0501174FF8078
:1009F600EDC3CC13CCCD13CDCE13CECF13CF047015
:070A0600F030D5DE020B8C7D
:100A0D00E9D2E7C933E833F892D5EDD2E7CD33EC2F
:070A1D0033FC5002B2D522A8
:100A2400EC30E7100FBF000C0EBE00080DBD000433
:100A34000BEB6014A2D5EB13FCED92E7FD2274FFDF
:100A4400FCFDFEFF22E480F8A2D574FF13FC7D8038
:030A5400E480EF4C
:03000000020DC925
:0C0DC900787FE4F6D8FD758124020E103E
:100A5700EF8DF0A4A8F0CF8CF0A428CE8DF0A42EB3
:020A6700FE226D
:100A6900BC000BBE0029EF8DF084FFADF022E4CC71
:100A7900F875F008EF2FFFEE33FEEC33FCEE9DEC3A
:100A8900984005FCEE9DFE0FD5F0E9E4CEFD22ED80
:100A9900F8F5F0EE8420D21CFEADF075F008EF2FCA
:100AA900FFED33FD4007985006D5F0F222C398FDBB
:050AB9000FD5F0EA2258
:100ABE0075F008758200EF2FFFEE33FECD33CDCCEF
:100ACE0033CCC58233C5829BED9AEC99E582984072
:100ADE000CF582EE9BFEED9AFDEC99FC0FD5F0D64F
:100AEE00E4CEFBE4CDFAE4CCF9A88222B800C1B979
:100AFE000059BA002DEC8BF084CFCECDFCE5F0CBB7
:100B0E00F97818EF2FFFEE33FEED33FDEC33FCEBEF
:100B1E0033FB10D703994004EB99FB0FD8E5E4F9AA
:100B2E00FA227818EF2FFFEE33FEED33FDEC33FC97
:100B3E00C933C910D7059BE99A4007EC9BFCE99A8B
:100B4E00F90FD8E0E4C9FAE4CCFB2275F010EF2FD0
:100B5E00FFEE33FEED33FDCC33CCC833C810D707D0
:100B6E009BEC9AE899400AED9BFDEC9AFCE899F80B
:0E0B7E000FD5F0DAE4CDFBE4CCFAE4C8F9229E
:0E0B8C00C3E49FFFE49EFEE49DFDE49CFC227A
:100B9A00EB9FF5F0EA9E42F0E99D42F0E89C45F0B1
:010BAA002228
:100DD500020EB0E493A3F8E493A34003F68001F276
:100DE50008DFF48029E493A3F85407240CC8C3331F
:100DF500C4540F4420C8834004F456800146F6DFEE
:100E0500E4800B0102040810204080900FC1E47EAD
:100E1500019360BCA3FF543F30E509541FFEE493E2
:100E2500A360010ECF54C025E060A840B8E493A3A9
:100E3500FAE493A3F8E493A3C8C582C8CAC583CAD4
:100E4500F0A3C8C582C8CAC583CADFE9DEE780BE8C
:010FC400002C
:00000001FF
