:100D1A00E4F508F509F50AF50B120EB6120EEE12F5
:020D2A000ECFEA
:100D2C00120B6F8F0CE50C646B602AAE08AF097C5C
:100D3C00007D0A12095F8E088F09E50C24D0FFE4B0
:100D4C0034FFFEEF2509F509EE3508F508050BE52E
:100D5C000B7002050A30B008E50B6405450A700BF0
:100D6C00E4F508F509F50AF50BD2B0AF09AE081297
:090D7C000AB3AF09AE08120C0223
:020D850080A547
:0F0EB600120EC5C283C282C281C28075A099226A
:100DE200E4FEEFB40A00504D900DF1F8282873028A
:100DF2000E0F020E13020E17020E1B020E1F020E20
:100E020023020E27020E2B020E2F020E337EC0800B
:100E1200267EF980227EA4801E7EB0801A7E998072
:100E2200167E9280127E82800E7EF8800A7E8080FC
:090E3200067E9080027EFFAF06EF
:010E3B002294
:040AB300AB07AA06DD
:100AB7007C007D0A1209718D0D7C007D0AAF03AEA3
:100AC700021209717C007D0A1209718D0E7C007D6E
:100AD70064AF03AE021209717C007D0A1209718DA1
:100AE7000FAE02AF037C037DE81209717C007D0A1B
:100AF700120971AF0D120DE28F10AF0E120DE28FBA
:100B070011AF0F120DE28F12AF05120DE28F131204
:100B17000EE0EF4E700CD283C282C281C280851074
:100B2700A022EF64014E700CC283D282C281C280C0
:100B37008511A022EF64024E700CC283C282D2815B
:100B4700C2808512A022EF64034E700AC283C2825C
:100B5700C281D280800EEF64044E700BC283C282C2
:070B6700C281C2808513A0CA
:010B6E002264
:030EEA00012000E4
:0A0EC500438901D2A9D2AFD28C22DA
:050EE000AE1EAF1F2251
:03000B00020D875C
:100D8700C0E0C0D0C28DC28C758CDF758A00E520AB
:100D97007006F51EF51F8032E520B40108751E00A8
:100DA700751F018025E520B40208751E00751F0216
:100DB7008018E520B40308751E00751F03800BE536
:100DC70020B40406751E00751F040520E520B40530
:0B0DD70003752000D28CD0D0D0E03299
:040EEE007590FF22DA
:100B6F007F6BC290D291D292D2932094047F378020
:100B7F00F92095047F3880F92096047F3980F92079
:100B8F0097047F4180F9D290C291D292D293209450
:100B9F00047F3480F92095047F3580F92096047FF7
:100BAF003680F92097047F4280F9D290D291C29279
:100BBF00D2932094047F3180F92095047F3280F9FD
:100BCF002096047F3380F92097047F4380F9D290D9
:100BDF00D291D292C2932094047F2A80F920950457
:100BEF007F3080F92096047F2380F92097047F447B
:020BFF0080F97B
:010C010022D0
:090ECF00D2B0D2AFD2A8D2882221
:03000300020EF2F8
:030EF200C2B03259
:080ED800438910D2ABD2AF2216
:100E8F00C3E4951BFFE4951AFE74019519FDE495D3
:100E9F0018FCE4FB7A01F9F8120A028F8DC3E4956E
:070EAF001BFF8F8BD28E2286
:050EE500C28FC28E2245
:03001B00020E3C96
:100E3C00C0E0C0F0C083C082C0D075D000C000C07C
:100E4C0001C002C003C004C005C006C007E51715E9
:100E5C0017700215161445167008B2B7851C168546
:100E6C001D17120EE5120E8FD007D006D005D00438
:100E7C00D003D002D001D000D0D0D082D083D0F01B
:030E8C00D0E03281
:100C02008E0D8F0EE515650E7004E514650D60708E
:100C1200120ED8850D14850E15AC14AD15E412080C
:100C2200A5A804A905AA06AB07E4FFFE7DE17C485E
:100C32001208031208DE8F1B8E1A8D198C18751C70
:100C420000751D01E4FFFE7D01FCAB1BAA1AA91968
:100C5200A818D3120AA2401F751C00751D0AAF1BEB
:100C6200AE1AAD19AC18E47B0AFAF9F8120A028F2F
:100C72001B8E1A8D198C18851C16851D17020E8F56
:0C0C8200E50E450D7005C2B7120EE5220C
:10080000020954EC5D046005E85904700302094ACA
:10081000120915580460F6EC4860F2EC7004FDFE15
:10082000FF22C860DB2481C85009C39860025006CB
:100830000209519850CAF582E9294B4A7005AB82EA
:1008400002094075F0007C1A7880C3EF9BEE9AEDA8
:1008500099400DC3EF9BFFEE9AFEED99FDE842F043
:10086000DC23ACF0D0E0FFD0E0FED0E0FDAB822096
:10087000E7101BEB60BAEC2CFCEF33FFEE33FEED20
:1008800033FD02092CE803F830E705C0F075F000ED
:10089000EF2FFFEE33FEED33FD40B830E7C280AA04
:1008A00075F020800E75F010800575F0087D007ED3
:1008B000007F003392D530D503120A94EC334010F8
:1008C000EF33FFEE33FEED33FDEC33FCD5F0ED22DC
:0E08D000E5F0247EA2D513CC92E7CDCEFF2218
:1008DE00EDD2E7CD33EC3392D524814006E4FFFE12
:1008EE00FDFC22FCE4CFCECDCC24E0501174FF8071
:1008FE00EDC3CC13CCCD13CDCE13CECF13CF04700E
:07090E00F030D5DE020A946F
:10091500E9D2E7C933E833F892D5EDD2E7CD33EC28
:0709250033FC5002B2D522A1
:10092C00EC30E7100FBF000C0EBE00080DBD00042C
:10093C000BEB6014A2D5EB13FCED92E7FD2274FFD8
:10094C00FCFDFEFF22E480F8A2D574FF13FC7D8031
:03095C00E480EF45
:03000000020C8E61
:0C0C8E00787FE4F6D8FD758120020CD5BB
:10095F00EF8DF0A4A8F0CF8CF0A428CE8DF0A42EAC
:02096F00FE2266
:10097100BC000BBE0029EF8DF084FFADF022E4CC6A
:10098100F875F008EF2FFFEE33FEEC33FCEE9DEC33
:10099100984005FCEE9DFE0FD5F0E9E4CEFD22ED79
:1009A100F8F5F0EE8420D21CFEADF075F008EF2FC3
:1009B100FFED33FD4007985006D5F0F222C398FDB4
:0509C1000FD5F0EA2251
:1009C60075F008758200EF2FFFEE33FECD33CDCCE8
:1009D60033CCC58233C5829BED9AEC99E58298406B
:1009E6000CF582EE9BFEED9AFDEC99FC0FD5F0D648
:1009F600E4CEFBE4CDFAE4CCF9A88222B800C1B972
:100A06000059BA002DEC8BF084CFCECDFCE5F0CBAF
:100A1600F97818EF2FFFEE33FEED33FDEC33FCEBE8
:100A260033FB10D703994004EB99FB0FD8E5E4F9A3
:100A3600FA227818EF2FFFEE33FEED33FDEC33FC90
:100A4600C933C910D7059BE99A4007EC9BFCE99A84
:100A5600F90FD8E0E4C9FAE4CCFB2275F010EF2FC9
:100A6600FFEE33FEED33FDCC33CCC833C810D707C9
:100A76009BEC9AE899400AED9BFDEC9AFCE899F804
:0E0A86000FD5F0DAE4CDFBE4CCFAE4C8F92297
:0E0A9400C3E49FFFE49EFEE49DFDE49CFC2273
:100AA200EB9FF5F0EA9E42F0E99D42F0E89C45F0AA
:010AB2002221
:100C9A00020D1AE493A3F8E493A34003F68001F249
:100CAA0008DFF48029E493A3F85407240CC8C3335B
:100CBA00C4540F4420C8834004F456800146F6DF2A
:100CCA00E4800B0102040810204080900EEAE47EC2
:100CDA00019360BCA3FF543F30E509541FFEE4931F
:100CEA00A360010ECF54C025E060A840B8E493A3E6
:100CFA00FAE493A3F8E493A3C8C582C8CAC583CA11
:100D0A00F0A3C8C582C8CAC583CADFE9DEE780BEC8
:010EED000004
:00000001FF
