:100A4200E4F508F509F50AF50B120B5D120B881295
:020A52000B7621
:100A54001208BC8F0CE50C646B602AAE08AF097CED
:100A6400007D0A1209DB8E088F09E50C24D0FFE40F
:100A740034FFFEEF2509F509EE3508F508050BE509
:100A84000B7002050A30B008E50B6405450A700BCB
:100A9400E4F508F509F50AF50BD2B0AF09AE081272
:020AA400080048
:020AA60080AC22
:0F0B5D00120B6CC283C282C281C28075A0992222
:100B0300E4FEEFB40A00504D900B12F8282873024C
:100B13000B30020B34020B38020B3C020B40020B6E
:100B230044020B48020B4C020B50020B547EC08054
:100B3300267EF980227EA4801E7EB0801A7E998054
:100B4300167E9280127E82800E7EF8800A7E8080DE
:090B5300067E9080027EFFAF06D1
:010B5C002276
:04080000AB07AA0692
:100804007C007D0A1209ED8D0D7C007D0AAF03AEDC
:10081400021209ED7C007D0A1209ED8D0E7C007D2B
:1008240064AF03AE021209ED7C007D0A1209ED8D5E
:100834000FAE02AF037C037DE81209ED7C007D0A54
:100844001209EDAF0D120B038F10AF0E120B038FB5
:1008540011AF0F120B038F12AF05120B038F13127C
:100864000B7FEF4E700CD283C282C281C28085108E
:10087400A022EF64014E700CC283D282C281C28076
:100884008511A022EF64024E700CC283C282D28111
:10089400C2808512A022EF64034E700AC283C28212
:1008A400C281D280800EEF64044E700BC283C28278
:0708B400C281C2808513A080
:0108BB00221A
:030B840001160057
:0A0B6C00438901D2A9D2AFD28C2236
:050B7F00AE14AF1522C9
:03000B00020AA83E
:100AA800C0E0C0D0C28DC28C758CDF758A00E51697
:100AB8007006F514F5158032E516B40108751400B2
:100AC8007515018025E516B4020875140075150220
:100AD8008018E516B40308751400751503800BE536
:100AE80016B404067514007515040516E516B40544
:0B0AF80003751600D28CD0D0D0E03285
:040B88007590FF2243
:1008BC007F6BC290D291D292D2932094047F3780D6
:1008CC00F92095047F3880F92096047F3980F9202F
:1008DC0097047F4180F9D290C291D292D293209406
:1008EC00047F3480F92095047F3580F92096047FAD
:1008FC003680F92097047F4280F9D290D291C2922F
:10090C00D2932094047F3180F92095047F3280F9B2
:10091C002096047F3380F92097047F4380F9D2908E
:10092C00D291D292C2932094047F2A80F92095040C
:10093C007F3080F92096047F2380F92097047F4430
:02094C0080F930
:01094E002286
:090B7600D2B0D2AFD2A8D288227D
:03000300020B8C61
:030B8C00C2B032C2
:0300000002094FA3
:0C094F00787FE4F6D8FD75811602099649
:1009DB00EF8DF0A4A8F0CF8CF0A428CE8DF0A42E30
:0209EB00FE22EA
:1009ED00BC000BBE0029EF8DF084FFADF022E4CCEE
:1009FD00F875F008EF2FFFEE33FEEC33FCEE9DECB7
:100A0D00984005FCEE9DFE0FD5F0E9E4CEFD22EDFC
:100A1D00F8F5F0EE8420D21CFEADF075F008EF2F46
:100A2D00FFED33FD4007985006D5F0F222C398FD37
:050A3D000FD5F0EA22D4
:10095B00020A42E493A3F8E493A34003F68001F266
:10096B0008DFF48029E493A3F85407240CC8C3339D
:10097B00C4540F4420C8834004F456800146F6DF6C
:10098B00E4800B0102040810204080900B84E47E6D
:10099B00019360BCA3FF543F30E509541FFEE49361
:1009AB00A360010ECF54C025E060A840B8E493A328
:1009BB00FAE493A3F8E493A3C8C582C8CAC583CA53
:1009CB00F0A3C8C582C8CAC583CADFE9DEE780BE0B
:010B8700006D
:00000001FF
