:0C09870012096A7FD27E0412080080F77B
:10094D00E4FFFEE4FDFC0DBD00010CBC27F8BD105D
:0C095D00F50FBF00010EEF640A4E70E7BA
:01096900226B
:0F096A00120979C283C282C281C28075A099220C
:10089E00E4FEEFB40A00504D9008ADF8282873021C
:1008AE0008CB0208CF0208D30208D70208DB0208E1
:1008BE00DF0208E30208E70208EB0208EF7EC080C1
:1008CE00267EF980227EA4801E7EB0801A7E9980BC
:1008DE00167E9280127E82800E7EF8800A7E808046
:0908EE00067E9080027EFFAF0639
:0108F70022DE
:04080000AB07AA0692
:100804007C007D0A1208F88D087C007D0AAF03AED7
:10081400021208F87C007D0A1208F88D097C007D1C
:1008240064AF03AE021208F87C007D0A1208F88D4A
:100834000AAE02AF037C037DE81208F87C007D0A4F
:100844001208F8AF0812089E8F0BAF0912089E8F8A
:100854000CAF0A12089E8F0DAF0512089E8F0E1260
:10086400099FD283C282C281C280850BA012099FD4
:10087400C283D282C281C280850CA012099FC28326
:10088400C282D281C280850DA012099FC283C28216
:0A089400C281D280850EA002099FE8
:0E097900438901758CFF758A5AD2A9D2AF222C
:0A099F00D28C308DFDC28DC28C2277
:03000B000209A93E
:0109A900321B
:030000000209935F
:0C099300787FE4F6D8FD75810E0209871C
:1008F800BC000BBE0029EF8DF084FFADF022E4CCE4
:10090800F875F008EF2FFFEE33FEEC33FCEE9DECAC
:10091800984005FCEE9DFE0FD5F0E9E4CEFD22EDF2
:10092800F8F5F0EE8420D21CFEADF075F008EF2F3C
:10093800FFED33FD4007985006D5F0F222C398FD2D
:050948000FD5F0EA22CA
:00000001FF
