:0E0AF700E4F50FF510120B79120BA2120B9200
:100B05001208BC8F11E511646B6022AE0FAF107C2B
:100B1500007D0A1209DB8E0F8F10E51124D0FFE44A
:100B250034FFFEEF2510F510EE350FF50FAF10AEC3
:040B35000F12080093
:020B390080CA70
:0F0B7900120B88C283C282C281C28075A09922EA
:100A9D00E4FEEFB40A00504D900AACF8282873021A
:100AAD000ACA020ACE020AD2020AD6020ADA020AD9
:100ABD00DE020AE2020AE6020AEA020AEE7EC080BD
:100ACD00267EF980227EA4801E7EB0801A7E9980BB
:100ADD00167E9280127E82800E7EF8800A7E808045
:090AED00067E9080027EFFAF0638
:010AF60022DD
:04080000AB07AA0692
:100804007C007D0A1209ED8D127C007D0AAF03AED7
:10081400021209ED7C007D0A1209ED8D137C007D26
:1008240064AF03AE021209ED7C007D0A1209ED8D5E
:1008340014AE02AF037C037DE81209ED7C007D0A4F
:100844001209EDAF12120A9D8F15AF13120A9D8F74
:1008540016AF14120A9D8F17AF05120A9D8F181236
:100864000B99EF4E700CD283C282C281C28085156F
:10087400A022EF64014E700CC283D282C281C28076
:100884008516A022EF64024E700CC283C282D2810C
:10089400C2808517A022EF64034E700AC283C2820D
:1008A400C281D280800EEF64044E700BC283C28278
:0708B400C281C2808518A07B
:0108BB00221A
:030B9E00011B0038
:0A0B8800438901D2A9D2AFD28C221A
:050B9900AE19AF1A22A5
:03000B00020A42A4
:100A4200C0E0C0D0C28DC28C758CDF758A00E51BF8
:100A52007006F519F51A8032E51BB4010875190004
:100A6200751A018025E51BB40208751900751A0272
:100A72008018E51BB40308751900751A03800BE58D
:100A82001BB40406751900751A04051BE51BB40591
:0B0A920003751B00D28CD0D0D0E032E6
:040BA2007590FF2229
:1008BC007F6BC290D291D292D2932094047F3780D6
:1008CC00F92095047F3880F92096047F3980F9202F
:1008DC0097047F4180F9D290C291D292D293209406
:1008EC00047F3480F92095047F3580F92096047FAD
:1008FC003680F92097047F4280F9D290D291C2922F
:10090C00D2932094047F3180F92095047F3280F9B2
:10091C002096047F3380F92097047F4380F9D2908E
:10092C00D291D292C2932094047F2A80F92095040C
:10093C007F3080F92096047F2380F92097047F4430
:02094C0080F930
:01094E002286
:070B9200D2AFD2A8D28822E5
:03000300020B3BB2
:100B3B00C0E0C0F0C083C082C0D075D000C000C080
:100B4B0001C002C003C004C005C006C007E4FFFE1D
:100B5B00120800D007D006D005D004D003D002D0A5
:0E0B6B0001D000D0D0D082D083D0F0D0E032C4
:0300000002094FA3
:0C094F00787FE4F6D8FD75811B02099644
:1009DB00EF8DF0A4A8F0CF8CF0A428CE8DF0A42E30
:0209EB00FE22EA
:1009ED00BC000BBE0029EF8DF084FFADF022E4CCEE
:1009FD00F875F008EF2FFFEE33FEEC33FCEE9DECB7
:100A0D00984005FCEE9DFE0FD5F0E9E4CEFD22EDFC
:100A1D00F8F5F0EE8420D21CFEADF075F008EF2F46
:100A2D00FFED33FD4007985006D5F0F222C398FD37
:050A3D000FD5F0EA22D4
:10095B00020AF7E493A3F8E493A34003F68001F2B1
:10096B0008DFF48029E493A3F85407240CC8C3339D
:10097B00C4540F4420C8834004F456800146F6DF6C
:10098B00E4800B0102040810204080900B9EE47E53
:10099B00019360BCA3FF543F30E509541FFEE49361
:1009AB00A360010ECF54C025E060A840B8E493A328
:1009BB00FAE493A3F8E493A3C8C582C8CAC583CA53
:1009CB00F0A3C8C582C8CAC583CADFE9DEE780BE0B
:010BA1000053
:00000001FF
