:100A4200E4F508F509120A5A0509E50970020508D4
:080A5200FFAE0812080080F05D
:0F0A5A00120A69C283C282C281C28075A099222A
:10099300E4FEEFB40A00504D9009A2F82828730230
:1009A30009C00209C40209C80209CC0209D002091C
:1009B300D40209D80209DC0209E00209E47EC080FE
:1009C300267EF980227EA4801E7EB0801A7E9980C6
:1009D300167E9280127E82800E7EF8800A7E808050
:0909E300067E9080027EFFAF0643
:0109EC0022E8
:04080000AB07AA0692
:100804007C007D0A1209ED8D0A7C007D0AAF03AEDF
:10081400021209ED7C007D0A1209ED8D0B7C007D2E
:1008240064AF03AE021209ED7C007D0A1209ED8D5E
:100834000CAE02AF037C037DE81209ED7C007D0A57
:100844001209EDAF0A1209938F0DAF0B1209938FA2
:100854000EAF0C1209938F0FAF051209938F10126C
:100864000A73EF4E700CD283C282C281C280850D9E
:10087400A022EF64014E700CC283D282C281C28076
:10088400850EA022EF64024E700CC283C282D28114
:10089400C280850FA022EF64034E700BC283C28214
:0708A400C281D2808510A083
:0108AB00222A
:030A780001130067
:0A0A6900438901D2A9D2AFD28C223A
:050A7300AE11AF1222DC
:03000B00020938AF
:10093800C0E0C0D0C28DC28C758CDA758A00E51310
:100948007006F511F5128032E513B401087511002F
:100958007512018025E513B402087511007512029D
:100968008018E513B40308751100751203800BE5B0
:1009780013B404067511007512040513E513B405C4
:0B09880003751300D28CD0D0D0E032F9
:030000000208AC47
:0C08AC00787FE4F6D8FD7581130208F394
:1009ED00BC000BBE0029EF8DF084FFADF022E4CCEE
:1009FD00F875F008EF2FFFEE33FEEC33FCEE9DECB7
:100A0D00984005FCEE9DFE0FD5F0E9E4CEFD22EDFC
:100A1D00F8F5F0EE8420D21CFEADF075F008EF2F46
:100A2D00FFED33FD4007985006D5F0F222C398FD37
:050A3D000FD5F0EA22D4
:1008B800020A42E493A3F8E493A34003F68001F20A
:1008C80008DFF48029E493A3F85407240CC8C33341
:1008D800C4540F4420C8834004F456800146F6DF10
:1008E800E4800B0102040810204080900A78E47E1E
:1008F800019360BCA3FF543F30E509541FFEE49305
:10090800A360010ECF54C025E060A840B8E493A3CB
:10091800FAE493A3F8E493A3C8C582C8CAC583CAF6
:10092800F0A3C8C582C8CAC583CADFE9DEE780BEAE
:010A7B00007A
:00000001FF
