:0C09DD001209C07FD27E0412080080F7CF
:0F09C0001209CFC283C282C281C28075A0992260
:10091100E4FEEFB40A00504D900920F82828730234
:10092100093E02094202094602094A02094E020928
:100931005202095602095A02095E0209627EC0800A
:10094100267EF980227EA4801E7EB0801A7E998048
:10095100167E9280127E82800E7EF8800A7E8080D2
:09096100067E9080027EFFAF06C5
:01096A00226A
:04080000AB07AA0692
:100804007C007D0A12096B8D087C007D0AAF03AE63
:100814000212096B7C007D0A12096B8D097C007D34
:1008240064AF03AE0212096B7C007D0A12096B8D62
:100834000AAE02AF037C037DE812096B7C007D0ADB
:1008440012096BAF081209118F0BAF091209118F2E
:100854000CAF0A1209118F0DAF051209118F0E1278
:1008640009F5D283C282C281C280850BA01209F528
:10087400C283D282C281C280850CA01209F5C283D0
:10088400C282D281C280850DA01209F5C283C282C0
:0A089400C281D280850EA00209F592
:0E09CF00438901758CFF758A5AD2A9D2AF22D6
:0A09F500D28C308DFDC28DC28C2221
:03000B000209FFE8
:0A09FF00C0D0A2B1B392B1D0D03243
:040A09007590FF22C3
:10089E007F33C290D291D292D2932094027F37208E
:1008AE0095027F382096027F392097027F41D290A1
:1008BE00C291D292D2932094027F342095027F353A
:1008CE002096027F362097027F42D290D291C2921A
:1008DE00D2932094027F312095027F322096027FA0
:1008EE00332097027F43D290D291D292C29320941A
:1008FE00027F2A2095027F302096027F23209702C6
:02090E007F4424
:0109100022C4
:030000000209E909
:0C09E900787FE4F6D8FD75810E0209DD70
:10096B00BC000BBE0029EF8DF084FFADF022E4CC70
:10097B00F875F008EF2FFFEE33FEEC33FCEE9DEC39
:10098B00984005FCEE9DFE0FD5F0E9E4CEFD22ED7F
:10099B00F8F5F0EE8420D21CFEADF075F008EF2FC9
:1009AB00FFED33FD4007985006D5F0F222C398FDBA
:0509BB000FD5F0EA2257
:00000001FF
